{
  "contractName": "Create2Factory",
  "abi": [
    {
      "constant": true,
      "inputs": [],
      "name": "contractCode",
      "outputs": [
        {
          "name": "",
          "type": "bytes"
        }
      ],
      "payable": false,
      "stateMutability": "view",
      "type": "function",
      "signature": "0x5c44bfcb"
    },
    {
      "constant": true,
      "inputs": [],
      "name": "contractAddress",
      "outputs": [
        {
          "name": "",
          "type": "address"
        }
      ],
      "payable": false,
      "stateMutability": "view",
      "type": "function",
      "signature": "0xf6b4dfb4"
    },
    {
      "constant": false,
      "inputs": [
        {
          "name": "_contractCode",
          "type": "bytes"
        }
      ],
      "name": "setContractCode",
      "outputs": [],
      "payable": false,
      "stateMutability": "nonpayable",
      "type": "function",
      "signature": "0xae96f404"
    },
    {
      "constant": false,
      "inputs": [
        {
          "name": "_signer",
          "type": "address"
        },
        {
          "name": "_salt",
          "type": "bytes32"
        },
        {
          "name": "_signature",
          "type": "bytes"
        }
      ],
      "name": "deployContract",
      "outputs": [],
      "payable": false,
      "stateMutability": "nonpayable",
      "type": "function",
      "signature": "0x1cc94d96"
    },
    {
      "constant": true,
      "inputs": [
        {
          "name": "_salt",
          "type": "bytes32"
        },
        {
          "name": "_signer",
          "type": "address"
        }
      ],
      "name": "computeContractAddress",
      "outputs": [
        {
          "name": "_contractAddress",
          "type": "address"
        }
      ],
      "payable": false,
      "stateMutability": "view",
      "type": "function",
      "signature": "0x7367a363"
    }
  ],
  "bytecode": "0x608060405234801561001057600080fd5b50610b41806100206000396000f3fe60806040526004361061006d576000357c0100000000000000000000000000000000000000000000000000000000900463ffffffff1680631cc94d96146100725780635c44bfcb146101645780637367a363146101f4578063ae96f4041461028f578063f6b4dfb414610357575b600080fd5b34801561007e57600080fd5b506101626004803603606081101561009557600080fd5b81019080803573ffffffffffffffffffffffffffffffffffffffff16906020019092919080359060200190929190803590602001906401000000008111156100dc57600080fd5b8201836020820111156100ee57600080fd5b8035906020019184600183028401116401000000008311171561011057600080fd5b91908080601f016020809104026020016040519081016040528093929190818152602001838380828437600081840152601f19601f8201169050808301925050505050505091929192905050506103ae565b005b34801561017057600080fd5b506101796104f0565b6040518080602001828103825283818151815260200191508051906020019080838360005b838110156101b957808201518184015260208101905061019e565b50505050905090810190601f1680156101e65780820380516001836020036101000a031916815260200191505b509250505060405180910390f35b34801561020057600080fd5b5061024d6004803603604081101561021757600080fd5b8101908080359060200190929190803573ffffffffffffffffffffffffffffffffffffffff16906020019092919050505061058e565b604051808273ffffffffffffffffffffffffffffffffffffffff1673ffffffffffffffffffffffffffffffffffffffff16815260200191505060405180910390f35b34801561029b57600080fd5b50610355600480360360208110156102b257600080fd5b81019080803590602001906401000000008111156102cf57600080fd5b8201836020820111156102e157600080fd5b8035906020019184600183028401116401000000008311171561030357600080fd5b91908080601f016020809104026020016040519081016040528093929190818152602001838380828437600081840152601f19601f820116905080830192505050505050509192919290505050610783565b005b34801561036357600080fd5b5061036c61079d565b604051808273ffffffffffffffffffffffffffffffffffffffff1673ffffffffffffffffffffffffffffffffffffffff16815260200191505060405180910390f35b60003083604051602001808373ffffffffffffffffffffffffffffffffffffffff1673ffffffffffffffffffffffffffffffffffffffff166c010000000000000000000000000281526014018281526020019250505060405160208183030381529060405280519060200120905060006104398361042b846107c3565b61081b90919063ffffffff16565b90508473ffffffffffffffffffffffffffffffffffffffff168173ffffffffffffffffffffffffffffffffffffffff161415156104de576040517f08c379a00000000000000000000000000000000000000000000000000000000081526004018080602001828103825260118152602001807f7369676e6572203d3d205f7369676e657200000000000000000000000000000081525060200191505060405180910390fd5b6104e884866108ff565b505050505050565b60008054600181600116156101000203166002900480601f0160208091040260200160405190810160405280929190818152602001828054600181600116156101000203166002900480156105865780601f1061055b57610100808354040283529160200191610586565b820191906000526020600020905b81548152906001019060200180831161056957829003601f168201915b505050505081565b6000808383604051602001808381526020018273ffffffffffffffffffffffffffffffffffffffff1673ffffffffffffffffffffffffffffffffffffffff166c0100000000000000000000000002815260140192505050604051602081830303815290604052805190602001209050600080604051602001808280546001816001161561010002031660029004801561065e5780601f1061063c57610100808354040283529182019161065e565b820191906000526020600020905b81548152906001019060200180831161064a575b5050915050604051602081830303815290604052805190602001209050600060ff7f01000000000000000000000000000000000000000000000000000000000000000230848460405160200180857effffffffffffffffffffffffffffffffffffffffffffffffffffffffffffff19167effffffffffffffffffffffffffffffffffffffffffffffffffffffffffffff191681526001018473ffffffffffffffffffffffffffffffffffffffff1673ffffffffffffffffffffffffffffffffffffffff166c010000000000000000000000000281526014018381526020018281526020019450505050506040516020818303038152906040528051906020012090506060819060020a026c010000000000000000000000009004935050505092915050565b8060009080519060200190610799929190610a70565b5050565b600160009054906101000a900473ffffffffffffffffffffffffffffffffffffffff1681565b60008160405160200180807f19457468657265756d205369676e6564204d6573736167653a0a333200000000815250601c01828152602001915050604051602081830303815290604052805190602001209050919050565b6000806000806041855114151561083857600093505050506108f9565b6020850151925060408501519150606085015160001a9050601b8160ff16101561086357601b810190505b601b8160ff161415801561087b5750601c8160ff1614155b1561088c57600093505050506108f9565b60018682858560405160008152602001604052604051808581526020018460ff1660ff1681526020018381526020018281526020019450505050506020604051602081039080840390855afa1580156108e9573d6000803e3d6000fd5b5050506020604051035193505050505b92915050565b6000606060008054600181600116156101000203166002900480601f0160208091040260200160405190810160405280929190818152602001828054600181600116156101000203166002900480156109995780601f1061096e57610100808354040283529160200191610999565b820191906000526020600020905b81548152906001019060200180831161097c57829003601f168201915b5050505050905060008484604051602001808381526020018273ffffffffffffffffffffffffffffffffffffffff1673ffffffffffffffffffffffffffffffffffffffff166c0100000000000000000000000002815260140192505050604051602081830303815290604052805190602001209050808251602084016000f59250823b1515610a2757600080fd5b82600160006101000a81548173ffffffffffffffffffffffffffffffffffffffff021916908373ffffffffffffffffffffffffffffffffffffffff160217905550505092915050565b828054600181600116156101000203166002900490600052602060002090601f016020900481019282601f10610ab157805160ff1916838001178555610adf565b82800160010185558215610adf579182015b82811115610ade578251825591602001919060010190610ac3565b5b509050610aec9190610af0565b5090565b610b1291905b80821115610b0e576000816000905550600101610af6565b5090565b9056fea165627a7a72305820146625418e68a51754416df7a973efa39691d389efc241b76060780bb86080c00029",
  "source": "pragma solidity >=0.4.25 <0.6.0;\nlibrary ECDSA {\n    /**\n     * @dev Recover signer address from a message by using their signature\n     * @param hash bytes32 message, the hash is the signed message. What is recovered is the signer address.\n     * @param signature bytes signature, the signature is generated using web3.eth.sign()\n     */\n    function recover(bytes32 hash, bytes memory signature) internal pure returns (address) {\n        bytes32 r;\n        bytes32 s;\n        uint8 v;\n\n        // Check the signature length\n        if (signature.length != 65) {\n            return (address(0));\n        }\n\n        // Divide the signature in r, s and v variables\n        // ecrecover takes the signature parameters, and the only way to get them\n        // currently is to use assembly.\n        // solhint-disable-next-line no-inline-assembly\n        assembly {\n            r := mload(add(signature, 0x20))\n            s := mload(add(signature, 0x40))\n            v := byte(0, mload(add(signature, 0x60)))\n        }\n\n        // Version of signature should be 27 or 28, but 0 and 1 are also possible versions\n        if (v < 27) {\n            v += 27;\n        }\n\n        // If the version is correct return the signer address\n        if (v != 27 && v != 28) {\n            return (address(0));\n        } else {\n            return ecrecover(hash, v, r, s);\n        }\n    }\n\n    /**\n     * toEthSignedMessageHash\n     * @dev prefix a bytes32 value with \"\\x19Ethereum Signed Message:\"\n     * and hash the result\n     */\n    function toEthSignedMessageHash(bytes32 hash) internal pure returns (bytes32) {\n        // 32 is the length in bytes of hash,\n        // enforced by the type signature above\n        return keccak256(abi.encodePacked(\"\\x19Ethereum Signed Message:\\n32\", hash));\n    }\n}\n\ncontract Create2Factory {\n    bytes public contractCode;\n    address public contractAddress;\n    using ECDSA for bytes32;\n    \n    function setContractCode(bytes memory _contractCode) public {\n        contractCode = _contractCode;\n    }\n\n    function deployContract(\n        address _signer,\n        bytes32 _salt,\n        bytes memory _signature\n    )\n        public\n    {\n        bytes32 msgHash = keccak256(abi.encodePacked(address(this), _salt));\n        address signer = msgHash.toEthSignedMessageHash().recover(_signature);\n        require(signer == _signer, \"signer == _signer\");\n        _createContract(_salt, _signer);\n    }\n\n    function _createContract(bytes32 _salt, address _signer) internal returns (address _contract) {\n        bytes memory _contractCode = contractCode;\n        bytes32 actualSalt = keccak256(abi.encodePacked(_salt, _signer));\n    \n        assembly {\n            _contract := create2(0, add(_contractCode, 0x20), mload(_contractCode), actualSalt)\n            if iszero(extcodesize(_contract)) {revert(0, 0)}\n        }\n        contractAddress = _contract;\n    }\n    \n    function computeContractAddress(bytes32 _salt, address _signer) public view returns (address _contractAddress) {\n        bytes32 actualSalt = keccak256(abi.encodePacked(_salt, _signer));\n        bytes32 contractCodeHash = keccak256(abi.encodePacked(contractCode)); // Double check this. Not sure if this is right\n\n        bytes32 _data = keccak256(\n            abi.encodePacked(\n            bytes1(0xff),\n            address(this),\n            actualSalt,\n            contractCodeHash\n            )\n        );\n        _contractAddress = address(bytes20(_data << 96));\n    }\n}",
  "sourcePath": "/Users/makoto/work/universal/contracts/contracts/Create2Factory.sol",
  "compiler": {
    "name": "solc",
    "version": "0.5.0+commit.1d4f565a.Emscripten.clang"
  },
  "schemaVersion": "3.0.2",
  "updatedAt": "2019-02-17T07:05:34.066Z",
  "devdoc": {
    "methods": {}
  },
  "userdoc": {
    "methods": {}
  }
}