{
  "contractName": "TestContract",
  "abi": [
    {
      "constant": true,
      "inputs": [],
      "name": "num",
      "outputs": [
        {
          "name": "",
          "type": "uint256"
        }
      ],
      "payable": false,
      "stateMutability": "view",
      "type": "function"
    },
    {
      "constant": false,
      "inputs": [
        {
          "name": "_num",
          "type": "uint256"
        }
      ],
      "name": "setNum",
      "outputs": [],
      "payable": false,
      "stateMutability": "nonpayable",
      "type": "function"
    }
  ],
  "bytecode": "0x608060405234801561001057600080fd5b5060e98061001f6000396000f3fe6080604052600436106049576000357c0100000000000000000000000000000000000000000000000000000000900463ffffffff1680634e70b1dc14604e578063cd16ecbf146076575b600080fd5b348015605957600080fd5b50606060ad565b6040518082815260200191505060405180910390f35b348015608157600080fd5b5060ab60048036036020811015609657600080fd5b810190808035906020019092919050505060b3565b005b60005481565b806000819055505056fea165627a7a72305820472759f7358ad6c097a6c36d0e855cd2e1b2343e73097f8d2ba0bc39c096a3a90029",
  "source": "contract TestContract {\n    uint public num;\n    \n    function setNum(uint _num) public {\n        num = _num;\n    }\n}",
  "sourcePath": "/Users/makoto/work/universal/UniversalLoginSDK/universal-login-wallet/contracts/contracts/TestContract.sol",
  "compiler": {
    "name": "solc",
    "version": "0.5.0+commit.1d4f565a.Emscripten.clang"
  },
  "schemaVersion": "3.0.2",
  "updatedAt": "2019-02-17T07:05:33.365Z",
  "devdoc": {
    "methods": {}
  },
  "userdoc": {
    "methods": {}
  }
}